{
  "contractName": "LandAssets",
  "abi": [
    {
      "constant": true,
      "inputs": [],
      "name": "status",
      "outputs": [
        {
          "name": "",
          "type": "bool"
        }
      ],
      "payable": false,
      "stateMutability": "view",
      "type": "function"
    },
    {
      "inputs": [],
      "payable": true,
      "stateMutability": "payable",
      "type": "constructor"
    },
    {
      "constant": false,
      "inputs": [
        {
          "name": "newRegistrar",
          "type": "address"
        }
      ],
      "name": "addRegistrar",
      "outputs": [
        {
          "name": "",
          "type": "bool"
        }
      ],
      "payable": true,
      "stateMutability": "payable",
      "type": "function"
    },
    {
      "constant": false,
      "inputs": [
        {
          "name": "assetId",
          "type": "uint256"
        },
        {
          "name": "assetOwner",
          "type": "address"
        }
      ],
      "name": "addAssets",
      "outputs": [
        {
          "name": "",
          "type": "bool"
        }
      ],
      "payable": true,
      "stateMutability": "payable",
      "type": "function"
    },
    {
      "constant": false,
      "inputs": [
        {
          "name": "buyer",
          "type": "address"
        },
        {
          "name": "assetId",
          "type": "uint256"
        }
      ],
      "name": "intendToSell",
      "outputs": [
        {
          "name": "",
          "type": "bool"
        }
      ],
      "payable": true,
      "stateMutability": "payable",
      "type": "function"
    },
    {
      "constant": false,
      "inputs": [
        {
          "name": "seller",
          "type": "address"
        },
        {
          "name": "buyer",
          "type": "address"
        },
        {
          "name": "registrar",
          "type": "address"
        },
        {
          "name": "assetId",
          "type": "uint256"
        }
      ],
      "name": "transferAssets",
      "outputs": [
        {
          "name": "",
          "type": "bool"
        }
      ],
      "payable": true,
      "stateMutability": "payable",
      "type": "function"
    },
    {
      "constant": true,
      "inputs": [
        {
          "name": "assetId",
          "type": "uint256"
        }
      ],
      "name": "viewAssetsBasedOnOwner",
      "outputs": [
        {
          "name": "",
          "type": "address"
        }
      ],
      "payable": false,
      "stateMutability": "view",
      "type": "function"
    }
  ],
  "bytecode": "0x6080604052336000806101000a81548173ffffffffffffffffffffffffffffffffffffffff021916908373ffffffffffffffffffffffffffffffffffffffff16021790555060018060003373ffffffffffffffffffffffffffffffffffffffff1673ffffffffffffffffffffffffffffffffffffffff16815260200190815260200160002060006101000a81548160ff021916908315150217905550610fbb806100aa6000396000f300608060405260043610610078576000357c0100000000000000000000000000000000000000000000000000000000900463ffffffff168063030c08c71461007d5780630c6d3e2c146100ea578063200d2ed2146101825780639af64e72146101b1578063af92a69314610209578063dd917a6214610257575b600080fd5b34801561008957600080fd5b506100a8600480360381019080803590602001909291905050506102af565b604051808273ffffffffffffffffffffffffffffffffffffffff1673ffffffffffffffffffffffffffffffffffffffff16815260200191505060405180910390f35b610168600480360381019080803573ffffffffffffffffffffffffffffffffffffffff169060200190929190803573ffffffffffffffffffffffffffffffffffffffff169060200190929190803573ffffffffffffffffffffffffffffffffffffffff169060200190929190803590602001909291905050506102ef565b604051808215151515815260200191505060405180910390f35b34801561018e57600080fd5b50610197610740565b604051808215151515815260200191505060405180910390f35b6101ef60048036038101908080359060200190929190803573ffffffffffffffffffffffffffffffffffffffff169060200190929190505050610753565b604051808215151515815260200191505060405180910390f35b61023d600480360381019080803573ffffffffffffffffffffffffffffffffffffffff169060200190929190505050610b5e565b604051808215151515815260200191505060405180910390f35b610295600480360381019080803573ffffffffffffffffffffffffffffffffffffffff16906020019092919080359060200190929190505050610cca565b604051808215151515815260200191505060405180910390f35b60006003600083815260200190815260200160002060000160009054906101000a900473ffffffffffffffffffffffffffffffffffffffff169050919050565b6000803360011515600160008373ffffffffffffffffffffffffffffffffffffffff1673ffffffffffffffffffffffffffffffffffffffff16815260200190815260200160002060009054906101000a900460ff1615151415156103bb576040517f08c379a00000000000000000000000000000000000000000000000000000000081526004018080602001828103825260168152602001807f53656e646572206e6f7420617574686f72697a65642e0000000000000000000081525060200191505060405180910390fd5b600115156002600086815260200190815260200160002060009054906101000a900460ff1615151415610731576003600085815260200190815260200160002091508573ffffffffffffffffffffffffffffffffffffffff168260030160009054906101000a900473ffffffffffffffffffffffffffffffffffffffff1673ffffffffffffffffffffffffffffffffffffffff1614156107285760008260030160006101000a81548173ffffffffffffffffffffffffffffffffffffffff021916908373ffffffffffffffffffffffffffffffffffffffff160217905550858260000160006101000a81548173ffffffffffffffffffffffffffffffffffffffff021916908373ffffffffffffffffffffffffffffffffffffffff160217905550868260020160006101000a81548173ffffffffffffffffffffffffffffffffffffffff021916908373ffffffffffffffffffffffffffffffffffffffff160217905550848260010160006101000a81548173ffffffffffffffffffffffffffffffffffffffff021916908373ffffffffffffffffffffffffffffffffffffffff16021790555081600360008681526020019081526020016000206000820160009054906101000a900473ffffffffffffffffffffffffffffffffffffffff168160000160006101000a81548173ffffffffffffffffffffffffffffffffffffffff021916908373ffffffffffffffffffffffffffffffffffffffff1602179055506001820160009054906101000a900473ffffffffffffffffffffffffffffffffffffffff168160010160006101000a81548173ffffffffffffffffffffffffffffffffffffffff021916908373ffffffffffffffffffffffffffffffffffffffff1602179055506002820160009054906101000a900473ffffffffffffffffffffffffffffffffffffffff168160020160006101000a81548173ffffffffffffffffffffffffffffffffffffffff021916908373ffffffffffffffffffffffffffffffffffffffff1602179055506003820160009054906101000a900473ffffffffffffffffffffffffffffffffffffffff168160030160006101000a81548173ffffffffffffffffffffffffffffffffffffffff021916908373ffffffffffffffffffffffffffffffffffffffff1602179055506004820154816004015590505060019250610736565b60009250610736565b600092505b5050949350505050565b600460009054906101000a900460ff1681565b6000803360011515600160008373ffffffffffffffffffffffffffffffffffffffff1673ffffffffffffffffffffffffffffffffffffffff16815260200190815260200160002060009054906101000a900460ff16151514151561081f576040517f08c379a00000000000000000000000000000000000000000000000000000000081526004018080602001828103825260168152602001807f53656e646572206e6f7420617574686f72697a65642e0000000000000000000081525060200191505060405180910390fd5b600115156002600087815260200190815260200160002060009054906101000a900460ff161515141515610b485760016002600087815260200190815260200160002060006101000a81548160ff021916908315150217905550838260000160006101000a81548173ffffffffffffffffffffffffffffffffffffffff021916908373ffffffffffffffffffffffffffffffffffffffff160217905550338260010160006101000a81548173ffffffffffffffffffffffffffffffffffffffff021916908373ffffffffffffffffffffffffffffffffffffffff160217905550338260020160006101000a81548173ffffffffffffffffffffffffffffffffffffffff021916908373ffffffffffffffffffffffffffffffffffffffff16021790555060008260030160006101000a81548173ffffffffffffffffffffffffffffffffffffffff021916908373ffffffffffffffffffffffffffffffffffffffff16021790555081600360008781526020019081526020016000206000820160009054906101000a900473ffffffffffffffffffffffffffffffffffffffff168160000160006101000a81548173ffffffffffffffffffffffffffffffffffffffff021916908373ffffffffffffffffffffffffffffffffffffffff1602179055506001820160009054906101000a900473ffffffffffffffffffffffffffffffffffffffff168160010160006101000a81548173ffffffffffffffffffffffffffffffffffffffff021916908373ffffffffffffffffffffffffffffffffffffffff1602179055506002820160009054906101000a900473ffffffffffffffffffffffffffffffffffffffff168160020160006101000a81548173ffffffffffffffffffffffffffffffffffffffff021916908373ffffffffffffffffffffffffffffffffffffffff1602179055506003820160009054906101000a900473ffffffffffffffffffffffffffffffffffffffff168160030160006101000a81548173ffffffffffffffffffffffffffffffffffffffff021916908373ffffffffffffffffffffffffffffffffffffffff16021790555060048201548160040155905050610b51565b60009250610b56565b600192505b505092915050565b6000338073ffffffffffffffffffffffffffffffffffffffff166000809054906101000a900473ffffffffffffffffffffffffffffffffffffffff1673ffffffffffffffffffffffffffffffffffffffff16141515610c25576040517f08c379a00000000000000000000000000000000000000000000000000000000081526004018080602001828103825260168152602001807f53656e646572206e6f7420617574686f72697a65642e0000000000000000000081525060200191505060405180910390fd5b6000600460006101000a81548160ff02191690831515021790555060018060008573ffffffffffffffffffffffffffffffffffffffff1673ffffffffffffffffffffffffffffffffffffffff16815260200190815260200160002060006101000a81548160ff0219169083151502179055506001600460006101000a81548160ff021916908315150217905550600460009054906101000a900460ff16915050919050565b600080600115156002600085815260200190815260200160002060009054906101000a900460ff1615151415610f7a576003600084815260200190815260200160002090503373ffffffffffffffffffffffffffffffffffffffff168160000160009054906101000a900473ffffffffffffffffffffffffffffffffffffffff1673ffffffffffffffffffffffffffffffffffffffff161415610f6c57838160030160006101000a81548173ffffffffffffffffffffffffffffffffffffffff021916908373ffffffffffffffffffffffffffffffffffffffff16021790555080600360008581526020019081526020016000206000820160009054906101000a900473ffffffffffffffffffffffffffffffffffffffff168160000160006101000a81548173ffffffffffffffffffffffffffffffffffffffff021916908373ffffffffffffffffffffffffffffffffffffffff1602179055506001820160009054906101000a900473ffffffffffffffffffffffffffffffffffffffff168160010160006101000a81548173ffffffffffffffffffffffffffffffffffffffff021916908373ffffffffffffffffffffffffffffffffffffffff1602179055506002820160009054906101000a900473ffffffffffffffffffffffffffffffffffffffff168160020160006101000a81548173ffffffffffffffffffffffffffffffffffffffff021916908373ffffffffffffffffffffffffffffffffffffffff1602179055506003820160009054906101000a900473ffffffffffffffffffffffffffffffffffffffff168160030160006101000a81548173ffffffffffffffffffffffffffffffffffffffff021916908373ffffffffffffffffffffffffffffffffffffffff16021790555060048201548160040155905050610f75565b60009150610f88565b610f83565b60009150610f88565b600191505b50929150505600a165627a7a72305820879911c52af9d8a47517454bf5c9449dbf1c28d751f346c5ddffc467e4872fdf0029",
  "source": "pragma solidity 0.4.24;\r\n//Contract ver 0.8\r\ncontract LandAssets{\r\n    address contractOwner;\r\n    mapping(address => bool) registrars;\r\n    mapping(uint => bool) assetIds;\r\n    mapping (uint => Asset) assetsData;\r\n    bool public status;\r\n\r\n    struct Asset{\r\n        address owner;\r\n        address registrar;\r\n        address seller;\r\n        address prospectiveBuyer;\r\n        uint assetId;\r\n    }\r\n    \r\n    constructor() payable public {\r\n        contractOwner = msg.sender;\r\n        registrars[msg.sender] = true;\r\n    }\r\n    \r\n    function addRegistrar(address newRegistrar) payable public onlyByContractOwner(msg.sender) returns (bool){\r\n            status = false;\r\n            registrars[newRegistrar] = true;\r\n            status = true;\r\n            return status;\r\n    }\r\n    \r\n    \r\n    function addAssets(uint assetId, address assetOwner) payable public onlyByRegistrars(msg.sender) returns (bool){\r\n        if (assetIds[assetId] != true)\r\n        {\r\n            assetIds[assetId] = true;\r\n            Asset asst;\r\n            asst.owner = assetOwner;\r\n            asst.registrar = msg.sender;\r\n            asst.seller = msg.sender;\r\n            asst.prospectiveBuyer = 0;\r\n            assetsData[assetId] = asst;\r\n        }\r\n        else\r\n            return false;\r\n        \r\n        return true;\r\n        \r\n    }\r\n\r\n    \r\n    //Make this payable to become part of the transaction\r\n    function intendToSell(address buyer, uint assetId) public payable returns (bool){\r\n        if(assetIds[assetId] == true) {\r\n            Asset asst = assetsData[assetId];\r\n            if(asst.owner == msg.sender) {\r\n                asst.prospectiveBuyer = buyer;\r\n                assetsData[assetId] = asst;\r\n            }\r\n            else\r\n                return false;\r\n        }\r\n        else\r\n            return false;\r\n            \r\n        return true;\r\n    }\r\n    \r\n    //Make this payable to become part of the transaction\r\n    function transferAssets(address seller, address buyer, address registrar, uint assetId) payable public onlyByRegistrars(msg.sender) returns (bool)\r\n    {\r\n        if(assetIds[assetId] == true) {\r\n            Asset asst = assetsData[assetId];\r\n            if(asst.prospectiveBuyer == buyer) {\r\n                asst.prospectiveBuyer = 0;\r\n                asst.owner = buyer;\r\n                asst.seller = seller;\r\n                asst.registrar = registrar;\r\n                assetsData[assetId] = asst;\r\n                return true;\r\n            }\r\n            else\r\n                return false;\r\n        }\r\n        else\r\n            return false;       \r\n        \r\n    }\r\n    \r\n    //Viewing assets are based on assetId only. Need to think about owner as well.\r\n    \r\n    function viewAssetsBasedOnOwner(uint assetId) public view returns (address){\r\n        //return 0x90c3B877CA2d8406B22BdF63651343BDdEE47804;\r\n        return assetsData[assetId].owner;\r\n    }\r\n    \r\n    modifier onlyByRegistrars(address _account)\r\n    {\r\n        require(\r\n            registrars[_account] == true,\r\n            \"Sender not authorized.\"\r\n        );\r\n        // Do not forget the \"_;\"! It will\r\n        // be replaced by the actual function\r\n        // body when the modifier is used.\r\n        _;\r\n    }\r\n    \r\n    \r\n     modifier onlyByContractOwner(address _account)\r\n    {\r\n        require(\r\n            contractOwner == _account,\r\n            \"Sender not authorized.\"\r\n        );\r\n        // Do not forget the \"_;\"! It will\r\n        // be replaced by the actual function\r\n        // body when the modifier is used.\r\n        _;\r\n    }\r\n    \r\n}",
  "sourcePath": "E:\\AmitData\\Work\\Blockchain\\BlockCode\\LandRegistrar\\contracts\\LandAssets.sol",
  "compiler": {
    "name": "solc",
    "version": "0.4.24+commit.e67f0147.Emscripten.clang"
  },
  "schemaVersion": "2.0.1",
  "updatedAt": "2018-12-20T12:56:41.595Z"
}