{
  "contractName": "SimpleSquareStorage",
  "abi": [
    {
      "constant": false,
      "inputs": [
        {
          "name": "x",
          "type": "uint256"
        }
      ],
      "name": "set",
      "outputs": [],
      "payable": false,
      "stateMutability": "nonpayable",
      "type": "function"
    },
    {
      "constant": true,
      "inputs": [],
      "name": "get",
      "outputs": [
        {
          "name": "",
          "type": "uint256"
        }
      ],
      "payable": false,
      "stateMutability": "view",
      "type": "function"
    }
  ],
  "bytecode": "0x608060405234801561001057600080fd5b5060e18061001f6000396000f3006080604052600436106049576000357c0100000000000000000000000000000000000000000000000000000000900463ffffffff16806360fe47b114604e5780636d4ce63c146078575b600080fd5b348015605957600080fd5b5060766004803603810190808035906020019092919050505060a0565b005b348015608357600080fd5b50608a60ac565b6040518082815260200191505060405180910390f35b80810260008190555050565b600080549050905600a165627a7a723058202ff70316d451422c9654cd1db4013152c3c793d77aed0757cbc79b0f1f2c157a0029",
  "source": "pragma solidity ^0.4.4;\n\ncontract SimpleSquareStorage  {\n\n  uint storedData;\n    function set(uint x) public {\n    storedData = x*x;\n    \n    }\n\n    function get() constant returns (uint) {\n    return storedData;\n    }\n\n}\n\n\n\n",
  "sourcePath": "E:\\AmitData\\Work\\Blockchain\\BlockCode\\LandRegistrar\\contracts\\soliditySAmple.sol",
  "compiler": {
    "name": "solc",
    "version": "0.4.24+commit.e67f0147.Emscripten.clang"
  },
  "schemaVersion": "2.0.1",
  "updatedAt": "2018-12-18T11:04:42.591Z"
}